:04000000BDEF23F03D
:10464C000300C69A1200C5801200C5841200C58AE8
:10465C00C5881200C5CF43F01F0E4316D8A4FAD755
:10466C00C7A41200F7D7948C948EB896AC84190E0C
:10467C00AF6EAC98AB8EAC8A1200C6500F0B080A0A
:10468C00D8B404D0C6500F0B0B0AD8B4C586C7A03B
:10469C00FED7C9501200446E3F0EC716000EC66EF0
:1046AC00000EC56E4450C6124350C71294869488AF
:1046BC00C68A1200456E9EB8ACA2FDD745C0ADFFB0
:1046CC009EB8ACA2FDD743C0ADFF9EB8ACA2FDD73F
:1046DC0044C0ADFF120043504502F3CF47F0F4CF76
:1046EC0048F043504602F350482644504502F350DC
:1046FC00482647C043F048C044F01200466EC9CF6C
:10470C0045F0465007EC24F0476E486A47BE480611
:10471C00472806E14828D8A403D0C9CF45F0C69E47
:10472C0047504810D8B41200ECD74BC051F04CC0D5
:10473C0052F049C04FF04AC050F010D051C0D9FFD0
:10474C0052C0DAFFDF50536E514A522A4FC0D9FF84
:10475C0050C0DAFF53C0DFFF4F4A502A4D06D8A095
:10476C004E064D28EBE14E28D8B41200E7D74C0E7C
:10477C00F66E460EF76E000EF86E0900F5CF7CF063
:10478C000900F5CF7DF001EE00F0800EEE6AE80630
:10479C00FDE100EE80F0740EEE6AE806FDE100EE3D
:1047AC0001F0420EEE6AE806FDE1000EF86E000123
:1047BC008AEF38F020D043EC23F049C0D9FF4AC02F
:1047CC00DAFFDF6E494A4A2AC5B6FED7A1A602D047
:1047DC00FF0E1200C6500F0B080AD8B405D0C650F5
:1047EC000F0B0B0AD8A407D04B50D8B404D0C59AE1
:1047FC00C588C5B8FED74B064B28D8A4DCD7000E0D
:10480C001200446E44C0C9FFC6AE02D0FF0E1200A7
:10481C00C6500F0B080AD8B40FD0C6500F0B0B0A9A
:10482C00D8B40AD0C6889EA6FED7C7A4C7B002D0FB
:10483C00FE0E1200000E1200C6500F0B080AD8B460
:10484C0005D0C6500F0B0B0AD8A41200C7B0FED768
:10485C0030EC23F0C5AC02D0FE0E1200000E12009C
:10486C00556E55C049F0493A0F0E49164950516ED4
:10487C00526A55C049F00F0E49164950536E546A8E
:10488C0051C043F052C044F0000E466E1D0E456EF2
:10489C0071EC23F0DF0E5324F66E7F0E5420F76E6E
:1048AC000800F5CF49F049380F0B4A6E4B6A010EE0
:1048BC004A26000E4B22800E4C6E000E4D6E4A5056
:1048CC004C264B504D2243504C24D96E44504D2015
:1048DC00DA6EDF504E6EDF0E5324F66E7F0E5420D0
:1048EC00F76E0800F5CF4FF00F0E4F16010E506EFD
:1048FC004F2A02D0D89050364F2EFCD750504E1421
:10490C001200556E55C049F0493A0F0E49164950E0
:10491C00516E526A55C049F00F0E49164950536EEC
:10492C00546A51C043F052C044F0000E466E1D0E46
:10493C00456E71EC23F0DF0E5324F66E7F0E54207F
:10494C00F76E0800F5CF49F049380F0B4A6E4B6AE9
:10495C00070E4A26000E4B22800E4C6E000E4D6E3A
:10496C004A504C264B504D2243504C24D96E445047
:10497C004D20DA6EDF504E6EDF0E5324F66E7F0E36
:10498C005420F76E0800F5CF4FF00F0E4F16010EA6
:10499C00506E4F2A02D0D89050364F2EFCD7505024
:1049AC004E141200556E55C049F0493A0F0E491677
:1049BC004950516E526A55C049F00F0E4916495074
:1049CC00536E546AEF0E5324F66E7F0E5420F76E1E
:1049DC000800F5CF49F00F0E4916010E4A6E000E75
:1049EC004B6E492A03D0D8904A364B36492EFBD70A
:1049FC0051C043F052C044F0000E466E1D0E456E81
:104A0C0071EC23F0EF0E5324F66E7F0E5420F76EEC
:104A1C000800F5CF4CF04C380F0B4D6E4E6AD89009
:104A2C004D364E360D0E4D26000E4E22800E4F6E1C
:104A3C00000E506E4D504F264E50502243504F2476
:104A4C00D96E44505020DA6E4A50DE124B50DD12B3
:104A5C001200576E57C049F0493A0F0E491649508B
:104A6C00536E546A57C049F00F0E49164950556E93
:104A7C00566AEF0E5524F66E7F0E5620F76E080020
:104A8C00F5CF49F00F0E4916010E4A6E000E4B6E13
:104A9C00492A03D0D8904A364B36492EFBD74A1CAC
:104AAC004C6E4B1C4D6E53C043F054C044F0000E82
:104ABC00466E1D0E456E71EC23F0EF0E5524F66E0E
:104ACC007F0E5620F76E0800F5CF4EF04E380F0BC8
:104ADC004F6E506AD8904F3650360D0E4F26000E42
:104AEC005022800E516E000E526E4F505126505077
:104AFC00522243505124D96E44505220DA6E4C50FD
:104B0C00DE164D50DD161200000E526E000E516E68
:104B1C0052BE08D0525005E1040E515CD8B01200C0
:104B2C0001D0120030EC23F029EC23F030EC23F010
:104B3C0051C043F052C044F0000E466E1D0E456E3F
:104B4C0071EC23F0800E4324D96E000E4420DA6EF3
:104B5C00DF5084EC23F030EC23F0000E84EC23F0D7
:104B6C0030EC23F0000E506E000E4F6E50BE06D08F
:104B7C0050505AE1080E4F5CD8B056D051C043F09B
:104B8C0052C044F0000E466E1D0E456E71EC23F0C3
:104B9C004FC049F050C04AF0D89049364A360D0EF5
:104BAC004926000E4A22800E4B6E000E4C6E495068
:104BBC004B264A504C2243504B24D96E44504C2027
:104BCC00DA6EDF5084EC23F051C043F052C044F055
:104BDC00000E466E1D0E456E71EC23F04FC049F071
:104BEC0050C04AF0D89049364A360D0E4926000E70
:104BFC004A22800E4B6E000E4C6E49504B264A508A
:104C0C004C2243504B24D96E44504C20DA6EDECFEC
:104C1C004DF0DDCF4EF04EC04DF04E6A4D5084EC51
:104C2C0023F04F4A502AA2D72BEC23F0514A522A98
:104C3C0052BE78D7525001E16FD712005C6E000E55
:104C4C005E6E000E5F6E000E5D6E000E5E6E030EED
:104C5C005E6401D01200000E5F6E030E5F6401D023
:104C6C0046D05850100DAD0E596E790E5A6EF35049
:104C7C005926F4505A225E50040DF3505926F45024
:104C8C005A225F50010DF3505926F4505A2259C044
:104C9C00F6FF5AC0F7FF0800F550640AD8B427D0C5
:104CAC005850100DAD0E596E790E5A6EF3505926A0
:104CBC00F4505A225E50040DF3505926F4505A22E7
:104CCC005F50010DF3505926F4505A2259C0F6FF8B
:104CDC005AC0F7FF0800F5CF5BF05C50100DF35095
:104CEC005B245D6E5D50D8EC24F05F2AB6D78AEC5D
:104CFC0025F00D0E596EFC0EE82EFED7592EFCD762
:104D0C00000E5F6E030E5F6401D046D05850100D3C
:104D1C00AD0E596E790E5A6EF3505926F4505A2234
:104D2C005E50040DF3505926F4505A225F50010D79
:104D3C00F3505926F4505A2259C0F6FF5AC0F7FFC7
:104D4C000800F550640AD8B427D05850100DAD0E99
:104D5C00596E790E5A6EF3505926F4505A225E5001
:104D6C00040DF3505926F4505A225F50010DF350A4
:104D7C005926F4505A2259C0F6FF5AC0F7FF0800C2
:104D8C00F5CF5BF05C50100DF3505B245D6E5D5005
:104D9C002FEC25F05F2AB6D78AEC25F05E2A57D780
:104DAC00000E616E000E606E61BE08D0615005E1B0
:104DBC00040E605CD8B0E5D001D0E3D060C043F005
:104DCC0061C044F0000E466E1D0E456E71EC23F072
:104DDC00070E4326000E4422800E4324496E000E1B
:104DEC0044204A6E60C043F061C044F0000E466E31
:104DFC001D0E456E71EC23F0010E4326000E44226D
:104E0C00800E43244B6E000E44204C6E000E4E6EF2
:104E1C00060E4D6E9BEC23F030EC23F029EC23F0C6
:104E2C0030EC23F060C043F061C044F0000E466EDD
:104E3C001D0E456E71EC23F0800E4324D96E000ECE
:104E4C004420DA6EDF5084EC23F030EC23F0400E7B
:104E5C0084EC23F030EC23F02BEC23F030EC23F03B
:104E6C0029EC23F030EC23F060C043F061C044F037
:104E7C00000E466E1D0E456E71EC23F0800E432421
:104E8C00D96E000E4420DA6EDF50010984EC23F059
:104E9C0030EC23F060C043F061C044F0000E466E6D
:104EAC001D0E456E71EC23F0010E4326000E4422BC
:104EBC00800E4324496E000E44204A6E060E4B6E43
:104ECC00E0EC23F00009D8A4E5D72DEC23F02BEC73
:104EDC0023F0000E5F6E000E5E6E5FBE06D05F505C
:104EEC0049E1060E5E5CD8B045D060C043F061C0AD
:104EFC0044F0000E466E1D0E456E71EC23F0070E4D
:104F0C005E24546E000E5F20556E800E566E000EA1
:104F1C00576E545056265550572243505624D96E2E
:104F2C0044505720DA6E60C043F061C044F0000E6C
:104F3C00466E1D0E456E71EC23F0010E5E24596E0B
:104F4C00000E5F205A6E800E5B6E000E5C6E595028
:104F5C005B265A505C2243505B24E16E44505C202B
:104F6C00E26EDE50E618D8B402D0010E12005E4A92
:104F7C005F2AB3D7604A612A61BE20D7615001E134
:104F8C0017D7000E1200666EFF0E66245E6E5F6A07
:104F9C00FF0E5F22010E6624606E616A000E6122B4
:104FAC00FF0E5824626E636AFF0E6322010E5824B2
:104FBC00646E656A000E65226650080DF90E596E16
:104FCC007E0E5A6EF3505926F4505A225850010D49
:104FDC00F3505926F4505A2259C0F6FF5AC0F7FF25
:104FEC000800F550D8EC24F08AEC25F00D0E596E23
:104FFC00FC0EE82EFED7592EFCD76650080DF90E84
:10500C00596E7E0E5A6EF3505926F4505A2258504F
:10501C00010DF3505926F4505A2259C0F6FF5AC0CC
:10502C00F7FF0800F5502FEC25F08AEC25F0000E68
:10503C005D6E070E5D6401D012005FBE23D0585028
:10504C00010D5EC059F05FC05AF0D89059365A36EF
:10505C00D89059365A36D89059365A36F90E5B6E66
:10506C007E0E5C6E59505B265A505C22F3505B26C8
:10507C00F4505C225BC0F6FF5CC0F7FF0800F550F3
:10508C00D8EC24F061BE06D0615027E1080E605CBC
:10509C00D8B023D05850010D60C059F061C05AF0FF
:1050AC00D89059365A36D89059365A36D8905936EF
:1050BC005A36F90E5B6E7E0E5C6E59505B265A505A
:1050CC005C22F3505B26F4505C225BC0F6FF5CC0A4
:1050DC00F7FF0800F550D8EC24F063BE16D06650EC
:1050EC00080DF90E596E7E0E5A6EF3505926F45077
:1050FC005A226250592663505A2259C0F6FF5AC0A0
:10510C00F7FF0800F550D8EC24F065BE06D06550CA
:10511C001AE1080E645CD8B016D06650080DF90E72
:10512C00596E7E0E5A6EF3505926F4505A22645022
:10513C00592665505A2259C0F6FF5AC0F7FF08008D
:10514C00F550D8EC24F08AEC25F00D0E596EFC0EBF
:10515C00E82EFED7592EFCD75850010D5EC059F0E1
:10516C005FC05AF0D89059365A36D89059365A36BC
:10517C00D89059365A36F90E5B6E7E0E5C6E5950CD
:10518C005B265A505C22F3505B26F4505C225BC0C9
:10519C00F6FF5CC0F7FF0800F5502FEC25F05850D7
:1051AC00010D60C059F061C05AF0D89059365A368A
:1051BC00D89059365A36D89059365A36F90E5B6E05
:1051CC007E0E5C6E59505B265A505C22F3505B2667
:1051DC00F4505C225BC0F6FF5CC0F7FF0800F55092
:1051EC002FEC25F06650080DF90E596E7E0E5A6E96
:1051FC00F3505926F4505A226250592663505A22C1
:10520C0059C0F6FF5AC0F7FF0800F5502FEC25F0F7
:10521C006650080DF90E596E7E0E5A6EF3505926D3
:10522C00F4505A226450592665505A2259C0F6FF40
:10523C005AC0F7FF0800F5502FEC25F08AEC25F04A
:10524C005E06D8A05F06604A612A6206D8A0630693
:10525C00644A652A5D2AEDD65C6E000E5E6E000E09
:10526C005D6E000E5F6E5C50D8A45CD0000E5E6E5E
:10527C000F0E5E6401D012005E50040D390EF32443
:10528C00F66E7E0EF420F76E0800F5505818D8A470
:10529C0047D0000E5D6E030E5D6401D03ED05E50B3
:1052AC00040D390E5A6E7E0E5B6EF3505A26F45076
:1052BC005B225D50010DF3505A26F4505B225AC00C
:1052CC00F6FF5BC0F7FF0800F5CF5FF05F50010DF4
:1052DC00010EF324D96E000EF420DA6EDF50D8A440
:1052EC000DD05F50D8EC24F05F50010D010EF3246B
:1052FC00D96E000EF420DA6E010E0CD05F502FEC3C
:10530C0025F05F50010D010EF324D96E000EF42030
:10531C00DA6E000EDF6E5D2ABED78AEC25F0120025
:10532C005E2AA6D75C04D8A45DD0000E5E6E0F0E6C
:10533C005E6401D012005E50040D390EF324F66E3B
:10534C007E0EF420F76E0800F5505818D8A448D0FB
:10535C00000E5D6E030E5D6401D03FD05E50040DF7
:10536C00390E5A6E7E0E5B6EF3505A26F4505B2249
:10537C005D50010DF3505A26F4505B225AC0F6FFD3
:10538C005BC0F7FF0800F550100F5F6E5F50010D0A
:10539C00010EF324D96E000EF420DA6EDF50D8A47F
:1053AC000DD05F50D8EC24F05F50010D010EF324AA
:1053BC00D96E000EF420DA6E010E0CD05F502FEC7B
:1053CC0025F05F50010D010EF324D96E000EF42070
:1053DC00DA6E000EDF6E5D2ABDD78AEC25F0120066
:1053EC005E2AA5D7020E5C18D8A45DD0000E5E6EA6
:1053FC000F0E5E6401D012005E50040D390EF324C2
:10540C00F66E7E0EF420F76E0800F5505818D8A4EE
:10541C0048D0000E5D6E030E5D6401D03FD05E502F
:10542C00040D390E5A6E7E0E5B6EF3505A26F450F4
:10543C005B225D50010DF3505A26F4505B225AC08A
:10544C00F6FF5BC0F7FF0800F550200F5F6E5F5052
:10545C00010D010EF324D96E000EF420DA6EDF502C
:10546C00D8A40DD05F50D8EC24F05F50010D010E84
:10547C00F324D96E000EF420DA6E010E0CD05F50BE
:10548C002FEC25F05F50010D010EF324D96E000EA8
:10549C00F420DA6E000EDF6E5D2ABDD78AEC25F0A3
:1054AC0012005E2AA5D7030E5C18D8A41200000EB9
:1054BC005E6E0F0E5E6401D012005E50040D390E4C
:1054CC00F324F66E7E0EF420F76E0800F550581893
:1054DC00D8A448D0000E5D6E030E5D6401D03FD0A1
:1054EC005E50040D390E5A6E7E0E5B6EF3505A26CA
:1054FC00F4505B225D50010DF3505A26F4505B22A0
:10550C005AC0F6FF5BC0F7FF0800F550300F5F6E16
:10551C005F50010D010EF324D96E000EF420DA6EEB
:10552C00DF50D8A40DD05F50D8EC24F05F50010DA3
:10553C00010EF324D96E000EF420DA6E010E0CD09D
:10554C005F502FEC25F05F50010D010EF324D96E46
:10555C00000EF420DA6E000EDF6E5D2ABDD78AECE9
:10556C0025F012005E2AA5D75D6E000E5F6E000E50
:10557C005E6E5D04D8A44ED0000E5F6E120E5F649A
:10558C0001D012005F50010D8B0EF324F66E7F0ECE
:10559C00F420F76E0800F550D8EC24F05F50596EEB
:1055AC005A6A010E5926000E5A228B0E5924F66E99
:1055BC007F0E5A20F76E0800F550D8EC24F08AECD8
:1055CC0025F00D0E596EFC0EE82EFED7592EFCD789
:1055DC005F50010D8B0EF324F66E7F0EF420F76EE8
:1055EC000800F5502FEC25F05F50596E5A6A010EE9
:1055FC005926000E5A228B0E5924F66E7F0E5A2015
:10560C00F76E0800F5502FEC25F08AEC25F0020E11
:10561C005F26B4D7020E5D18D8A44ED0270E5F6E4D
:10562C00150E5F6001D012005F50010D8B0EF3243C
:10563C00F66E7F0EF420F76E0800F550D8EC24F0CF
:10564C005F50596E5A6A010E5926000E5A228B0E63
:10565C005924F66E7F0E5A20F76E0800F550D8ECE0
:10566C0024F08AEC25F00D0E596EFC0EE82EFED7B8
:10567C00592EFCD75F50010D8B0EF324F66E7F0E66
:10568C00F420F76E0800F5502FEC25F05F50596EA2
:10569C005A6A010E5926000E5A228B0E5924F66EA8
:1056AC007F0E5A20F76E0800F5502FEC25F08AEC8F
:1056BC0025F0020E5F5EB4D7030E5D18D8A44ED051
:1056CC00000E5F6E120E5F6401D012005F50010D70
:1056DC00630EF324F66E7F0EF420F76E0800F5507F
:1056EC00D8EC24F05F50596E5A6A010E5926000E00
:1056FC005A22630E5924F66E7F0E5A20F76E08005C
:10570C00F550D8EC24F08AEC25F00D0E596EFC0EF9
:10571C00E82EFED7592EFCD75F50010D630EF324F3
:10572C00F66E7F0EF420F76E0800F5502FEC25F086
:10573C005F50596E5A6A010E5926000E5A22630E9A
:10574C005924F66E7F0E5A20F76E0800F5502FEC98
:10575C0025F08AEC25F0020E5F26B4D7040E5D18F6
:10576C00D8A44ED0270E5F6E150E5F6001D01200CC
:10577C005F50010D630EF324F66E7F0EF420F76E6E
:10578C000800F550D8EC24F05F50596E5A6A010E9F
:10579C005926000E5A22630E5924F66E7F0E5A209B
:1057AC00F76E0800F550D8EC24F08AEC25F00D0EBD
:1057BC00596EFC0EE82EFED7592EFCD75F50010D0A
:1057CC00630EF324F66E7F0EF420F76E0800F5508E
:1057DC002FEC25F05F50596E5A6A010E5926000EB7
:1057EC005A22630E5924F66E7F0E5A20F76E08006B
:1057FC00F5502FEC25F08AEC25F0020E5F5EB4D745
:10580C00050E5D18D8A41200000E5C6E000E5B6EC7
:10581C0058C05FF0050E5F6401D081D0000E5E6E43
:10582C00130E5E6401D033D05F50140D550E596EBB
:10583C007B0E5A6EF3505926F4505A225E50010DCD
:10584C00F3505926F4505A2259C0F6FF5AC0F7FFAC
:10585C000800F550640AD8B41AD05F50140D550ED8
:10586C00596E7B0E5A6EF3505926F4505A225E50E4
:10587C00010DF3505926F4505A2259C0F6FF5AC064
:10588C00F7FF0800F550D8EC24F05E2AC9D78AEC53
:10589C0025F00D0E596EFC0EE82EFED7592EFCD7B6
:1058AC005B4A5C2A000E5E6E130E5E6401D033D030
:1058BC005F50140D550E596E7B0E5A6EF3505926CF
:1058CC00F4505A225E50010DF3505926F4505A22CE
:1058DC0059C0F6FF5AC0F7FF0800F550640AD8B457
:1058EC001AD05F50140D550E596E7B0E5A6EF35034
:1058FC005926F4505A225E50010DF3505926F4509B
:10590C005A2259C0F6FF5AC0F7FF0800F5502FEC89
:10591C0025F05E2AC9D78AEC25F05F2A7BD75CBEBE
:10592C0006D05C500DE1030E5B5CD8B012001A0E71
:10593C00596EF80EE82EFED7592EFCD700D0120067
:10594C0012005B6E000E5C6E000E5D6E5850D8EC53
:10595C0024F08AEC25F05B50D8A486D0000E5C6E47
:10596C00070E5C6401D01DD2000E5D6E070E5D64E7
:10597C0001D033D05C50080DB90E596E7E0E5A6EA4
:10598C00F3505926F4505A225D50010DF35059260C
:10599C00F4505A2259C0F6FF5AC0F7FF0800F550D0
:1059AC00640AD8B41AD05C50080DB90E596E7E0E2C
:1059BC005A6EF3505926F4505A225D50010DF35093
:1059CC005926F4505A2259C0F6FF5AC0F7FF080066
:1059DC00F550D8EC24F05D2AC9D78AEC25F0070ED7
:1059EC00596E7D0EE82EFED7592EFCD700F0000E16
:1059FC005D6E070E5D6401D033D05C50080DB90E9E
:105A0C00596E7E0E5A6EF3505926F4505A225D5040
:105A1C00010DF3505926F4505A2259C0F6FF5AC0C2
:105A2C00F7FF0800F550640AD8B41AD05C50080D82
:105A3C00B90E596E7E0E5A6EF3505926F4505A22F6
:105A4C005D50010DF3505926F4505A2259C0F6FFFF
:105A5C005AC0F7FF0800F5502FEC25F05D2AC9D786
:105A6C008AEC25F05C2A7CD75B04D8A486D0000E87
:105A7C005C6E050E5C6401D094D1000E5D6E070E59
:105A8C005D6401D033D05C50080D090E596E7D0E4B
:105A9C005A6EF3505926F4505A225D50010DF350B2
:105AAC005926F4505A2259C0F6FF5AC0F7FF080085
:105ABC00F550640AD8B41AD05C50080D090E596E12
:105ACC007D0E5A6EF3505926F4505A225D50010D3A
:105ADC00F3505926F4505A2259C0F6FF5AC0F7FF1A
:105AEC000800F550D8EC24F05D2AC9D78AEC25F0D3
:105AFC00070E596E7D0EE82EFED7592EFCD700F0FE
:105B0C00000E5D6E070E5D6401D033D05C50080D45
:105B1C00090E596E7D0E5A6EF3505926F4505A22C6
:105B2C005D50010DF3505926F4505A2259C0F6FF1E
:105B3C005AC0F7FF0800F550640AD8B41AD05C506C
:105B4C00080D090E596E7D0E5A6EF3505926F450FD
:105B5C005A225D50010DF3505926F4505A2259C067
:105B6C00F6FF5AC0F7FF0800F5502FEC25F05D2A20
:105B7C00C9D78AEC25F05C2A7CD7020E5B18D8A416
:105B8C0086D0000E5C6E050E5C6401D00AD1000E4E
:105B9C005D6E070E5D6401D033D05C50080D090EAC
:105BAC00596E7D0E5A6EF3505926F4505A225D50A0
:105BBC00010DF3505926F4505A2259C0F6FF5AC021
:105BCC00F7FF0800F550640AD8B41AD05C50080DE1
:105BDC00A90E596E7C0E5A6EF3505926F4505A2267
:105BEC005D50010DF3505926F4505A2259C0F6FF5E
:105BFC005AC0F7FF0800F550D8EC24F05D2AC9D73D
:105C0C008AEC25F0070E596E7D0EE82EFED7592E24
:105C1C00FCD700F0000E5D6E070E5D6401D033D032
:105C2C005C50080D090E596E7D0E5A6EF3505926B4
:105C3C00F4505A225D50010DF3505926F4505A225B
:105C4C0059C0F6FF5AC0F7FF0800F550640AD8B4E3
:105C5C001AD05C50080DA90E596E7C0E5A6EF3507A
:105C6C005926F4505A225D50010DF3505926F45028
:105C7C005A2259C0F6FF5AC0F7FF0800F5502FEC16
:105C8C0025F05D2AC9D78AEC25F05C2A7CD7030E57
:105C9C005B18D8A486D0000E5C6E070E5C6401D035
:105CAC0080D0000E5D6E070E5D6401D033D05C5069
:105CBC00080DA90E596E7C0E5A6EF3505926F450ED
:105CCC005A225D50010DF3505926F4505A2259C0F6
:105CDC00F6FF5AC0F7FF0800F550640AD8B41AD082
:105CEC005C50080D790E596E7E0E5A6EF350592683
:105CFC00F4505A225D50010DF3505926F4505A229B
:105D0C0059C0F6FF5AC0F7FF0800F550D8EC24F044
:105D1C005D2AC9D78AEC25F0070E596E7D0EE82E48
:105D2C00FED7592EFCD700F0000E5D6E070E5D6499
:105D3C0001D033D05C50080DA90E596E7C0E5A6EF2
:105D4C00F3505926F4505A225D50010DF350592648
:105D5C00F4505A2259C0F6FF5AC0F7FF0800F5500C
:105D6C00640AD8B41AD05C50080D790E596E7E0EA8
:105D7C005A6EF3505926F4505A225D50010DF350CF
:105D8C005926F4505A2259C0F6FF5AC0F7FF0800A2
:105D9C00F5502FEC25F05D2AC9D78AEC25F05C2A4A
:105DAC007CD758502FEC25F08AEC25F012005A6E57
:105DBC00000E5C6E000E5B6E000E5E6E000E5D6E75
:105DCC000F0E5A18D8B43CD01C0E5A18D8B438D070
:105DDC00230E5A18D8B434D0300E5A18D8B430D048
:105DEC000A0E5A18D8B42CD00B0E5A18D8B428D086
:105DFC00180E5A18D8B424D0190E5A18D8B420D06A
:105E0C000E0E5A18D8B41CD0220E5A18D8B418D06A
:105E1C00260E5A18D8B414D0270E5A18D8B410D04D
:105E2C00340E5A18D8B40CD0350E5A18D8B408D031
:105E3C001D0E5A18D8B404D0310E5A18D8A4B9D0A3
:105E4C00000E5C6E000E5B6E5CBE08D05C5005E113
:105E5C00040E5B5CD8B0120001D01200000E5E6E16
:105E6C00000E5D6E5EBE06D05E5044E11D0E5D5CA4
:105E7C00D8B040D05BC043F05CC044F0000E466E1E
:105E8C001D0E456E71EC23F0CD0E586E7B0E596EC7
:105E9C0043505826445059225D5058265E50592282
:105EAC0058C0F6FF59C0F7FF0800F550640AD8B483
:105EBC0021D05BC043F05CC044F0000E466E1D0E5A
:105ECC00456E71EC23F0CD0E586E7B0E596E43501F
:105EDC005826445059225D5058265E50592258C0BD
:105EEC00F6FF59C0F7FF0800F550D8EC24F05D4AD6
:105EFC005E2AB8D78AEC25F00D0E586EFC0EE82EF3
:105F0C00FED7582EFCD7000E5E6E000E5D6E5EBE88
:105F1C0006D05E5044E11D0E5D5CD8B040D05BC035
:105F2C0043F05CC044F0000E466E1D0E456E71ECE5
:105F3C0023F0CD0E586E7B0E596E435058264450AC
:105F4C0059225D5058265E50592258C0F6FF59C050
:105F5C00F7FF0800F550640AD8B421D05BC043F0B9
:105F6C005CC044F0000E466E1D0E456E71EC23F0C5
:105F7C00CD0E586E7B0E596E435058264450592204
:105F8C005D5058265E50592258C0F6FF59C0F7FF95
:105F9C000800F5502FEC25F05D4A5E2AB8D78AEC44
:105FAC0025F05B4A5C2A5CBE59D75C5001E150D7A6
:105FBC00120041504210D8A4BDD0000E5C6E000EF1
:105FCC005B6E5CBE08D05C5005E1070E5B5CD8B024
:105FDC00ACD001D0AAD0000E5E6E000E5D6E5EBE1F
:105FEC0006D05E5044E1180E5D5CD8B040D05BC06A
:105FFC0043F05CC044F0000E466E180E456E71EC1A
:10600C0023F0AD0E586E7A0E596E435058264450FC
:10601C0059225D5058265E50592258C0F6FF59C07F
:10602C00F7FF0800F550640AD8B421D05BC043F0E8
:10603C005CC044F0000E466E180E456E71EC23F0F9
:10604C00AD0E586E7A0E596E435058264450592254
:10605C005D5058265E50592258C0F6FF59C0F7FFC4
:10606C000800F550D8EC24F05D4A5E2AB8D78AECCB
:10607C0025F00D0E586EFC0EE82EFED7582EFCD7D0
:10608C00000E5E6E000E5D6E5EBE06D05E5044E18C
:10609C00180E5D5CD8B040D05BC043F05CC044F0DF
:1060AC00000E466E180E456E71EC23F0AD0E586E58
:1060BC007A0E596E43505826445059225D5058263A
:1060CC005E50592258C0F6FF59C0F7FF0800F55032
:1060DC00640AD8B421D05BC043F05CC044F0000E1D
:1060EC00466E180E456E71EC23F0AD0E586E7A0E9E
:1060FC00596E43505826445059225D5058265E50D4
:10610C00592258C0F6FF59C0F7FF0800F5502FEC84
:10611C0025F05D4A5E2AB8D78AEC25F05B4A5C2AEA
:10612C005CBE59D75C5001E150D7000E426E010E97
:10613C00416E120041044210D8A41200000E5C6E95
:10614C00080E5B6E5CBEA7D0000E5E6E000E5D6E20
:10615C005EBE06D05E5044E1180E5D5CD8B040D0F7
:10616C005BC043F05CC044F0000E466E180E456EEA
:10617C0071EC23F0AD0E586E7A0E596E43505826C2
:10618C00445059225D5058265E50592258C0F6FF93
:10619C0059C0F7FF0800F550640AD8B421D05BC091
:1061AC0043F05CC044F0000E466E180E456E71EC68
:1061BC0023F0AD0E586E7A0E596E4350582644504B
:1061CC0059225D5058265E50592258C0F6FF59C0CE
:1061DC00F7FF0800F550D8EC24F05D4A5E2AB8D7DA
:1061EC008AEC25F00D0E586EFC0EE82EFED7582EBC
:1061FC00FCD7000E5E6E000E5D6E5EBE06D05E506D
:10620C0044E1180E5D5CD8B040D05BC043F05CC07C
:10621C0044F0000E466E180E456E71EC23F0AD0E78
:10622C00586E7A0E596E43505826445059225D5080
:10623C0058265E50592258C0F6FF59C0F7FF080087
:10624C00F550640AD8B421D05BC043F05CC044F074
:10625C00000E466E180E456E71EC23F0AD0E586EA6
:10626C007A0E596E43505826445059225D50582688
:10627C005E50592258C0F6FF59C0F7FF0800F55080
:10628C002FEC25F05D4A5E2AB8D78AEC25F05B0628
:10629C00D8A05C0657D7000E426E000E416E12005D
:1062AC00606E000E666E000E656E000E686E000E5F
:1062BC00676E000E646E000E636E000E626E000E52
:1062CC00616E58C05AF0030E5A165A505E6E5F6AD1
:1062DC00000E666E000E656E66BE06D0665050E10E
:1062EC00080E655CD8B04CD0000E686E000E676E60
:1062FC0068BE06D0685041E1080E675CD8B03DD04E
:10630C0065C05AF066C05BF0D8905A365B36D890B0
:10631C005A365B36D8905A365B36F90E5C6E7E0E6A
:10632C005D6E5A505C265B505D2267505C2668504F
:10633C005D225CC0F6FF5DC0F7FF0800F5505918F0
:10634C00D8A418D065C05AF066C05BF0D8905A3605
:10635C005B36D8905A365B36D8905A365B36F90E87
:10636C005A24F66E7E0E5B20F76E0800F550616EB7
:10637C00626A03D0674A682ABBD7654A662AACD7DB
:10638C006050D8A4C5D05EC065F05FC066F066BE34
:10639C0008D0665005E1080E655CD8B0120001D03B
:1063AC001200000E686E000E676E68BE06D0685054
:1063BC004AE1030E675CD8B046D065C043F066C0B6
:1063CC0044F0000E466E030E456E71EC23F0B30ED6
:1063DC005A6E7F0E5B6E43505A2644505B226750B8
:1063EC005A2668505B225AC0F6FF5BC0F7FF0800C4
:1063FC00F550640AD8B427D065C043F066C044F0A9
:10640C00000E466E030E456E71EC23F0B30E5A6E01
:10641C007F0E5B6E43505A2644505B2267505A26BF
:10642C0068505B225AC0F6FF5BC0F7FF0800F550BE
:10643C006124636E000E6220646E6350D8EC24F00D
:10644C00674A682AB2D78AEC25F00D0E5A6EFC0EFC
:10645C00E82EFED75A2EFCD7000E686E000E676E23
:10646C0068BE06D068504AE1030E675CD8B046D0CF
:10647C0065C043F066C044F0000E466E030E456ED8
:10648C0071EC23F0B30E5A6E7F0E5B6E43505A269E
:10649C0044505B2267505A2668505B225AC0F6FF64
:1064AC005BC0F7FF0800F550640AD8B427D065C06C
:1064BC0043F066C044F0000E466E030E456E71EC60
:1064CC0023F0B30E5A6E7F0E5B6E43505A26445027
:1064DC005B2267505A2668505B225AC0F6FF5BC09D
:1064EC00F7FF0800F5506124636E000E6220646EA5
:1064FC0063502FEC25F0674A682AB2D78AEC25F056
:10650C00654A662A66BE4DD7665001E144D7120033
:10651C006004D8A4BBD0020E5E24656E000E5F2012
:10652C00666E66BE1200000E686E000E676E68BE68
:10653C0006D068504AE1030E675CD8B046D065C0FF
:10654C0043F066C044F0000E466E030E456E71ECCF
:10655C0023F0B30E5A6E7F0E5B6E43505A26445096
:10656C005B2267505A2668505B225AC0F6FF5BC00C
:10657C00F7FF0800F550640AD8B427D065C043F083
:10658C0066C044F0000E466E030E456E71EC23F0AF
:10659C00B30E5A6E7F0E5B6E43505A2644505B22EC
:1065AC0067505A2668505B225AC0F6FF5BC0F7FF53
:1065BC000800F5506124636E000E6220646E635017
:1065CC00D8EC24F0674A682AB2D78AEC25F00D0E75
:1065DC005A6EFC0EE82EFED75A2EFCD7000E686EB3
:1065EC00000E676E68BE06D068504AE1030E675C09
:1065FC00D8B046D065C043F066C044F0000E466E7D
:10660C00030E456E71EC23F0B30E5A6E7F0E5B6E6B
:10661C0043505A2644505B2267505A2668505B22DE
:10662C005AC0F6FF5BC0F7FF0800F550640AD8B4F7
:10663C0027D065C043F066C044F0000E466E030ED2
:10664C00456E71EC23F0B30E5A6E7F0E5B6E4350A9
:10665C005A2644505B2267505A2668505B225AC017
:10666C00F6FF5BC0F7FF0800F5506124636E000E67
:10667C006220646E63502FEC25F0674A682AB2D70B
:10668C008AEC25F06506D8A066064BD7020E60187A
:10669C00D8A4C5D05EC065F05FC066F066BE08D0F9
:1066AC00665005E1070E655CD8B0120001D01200EF
:1066BC00000E686E000E676E68BE06D068504AE128
:1066CC00030E675CD8B046D065C043F066C044F09A
:1066DC00000E466E030E456E71EC23F0B30E5A6E2F
:1066EC007F0E5B6E43505A2644505B2267505A26ED
:1066FC0068505B225AC0F6FF5BC0F7FF0800F550EC
:10670C00640AD8B427D065C043F066C044F0000ECC
:10671C00466E030E456E71EC23F0B30E5A6E7F0E6F
:10672C005B6E43505A2644505B2267505A26685081
:10673C005B225AC0F6FF5BC0F7FF0800F5506124DE
:10674C00636E000E6220646E6350D8EC24F0674ACE
:10675C00682AB2D78AEC25F00D0E5A6EFC0EE82E84
:10676C00FED75A2EFCD7000E686E000E676E68BE00
:10677C0006D068504AE1030E675CD8B046D065C0BD
:10678C0043F066C044F0000E466E030E456E71EC8D
:10679C0023F0B30E5A6E7F0E5B6E43505A26445054
:1067AC005B2267505A2668505B225AC0F6FF5BC0CA
:1067BC00F7FF0800F550640AD8B427D065C043F041
:1067CC0066C044F0000E466E030E456E71EC23F06D
:1067DC00B30E5A6E7F0E5B6E43505A2644505B22AA
:1067EC0067505A2668505B225AC0F6FF5BC0F7FF11
:1067FC000800F5506124636E000E6220646E6350D5
:10680C002FEC25F0674A682AB2D78AEC25F0654A46
:10681C00662A66BE4DD7665001E144D71200030EBE
:10682C006018D8A41200020E5E24656E000E5F2064
:10683C00666E66BE1200000E686E000E676E68BE55
:10684C0006D068504AE1030E675CD8B046D065C0EC
:10685C0043F066C044F0000E466E030E456E71ECBC
:10686C0023F0B30E5A6E7F0E5B6E43505A26445083
:10687C005B2267505A2668505B225AC0F6FF5BC0F9
:10688C00F7FF0800F550640AD8B427D065C043F070
:10689C0066C044F0000E466E030E456E71EC23F09C
:1068AC00B30E5A6E7F0E5B6E43505A2644505B22D9
:1068BC0067505A2668505B225AC0F6FF5BC0F7FF40
:1068CC000800F5506124636E000E6220646E635004
:1068DC00D8EC24F0674A682AB2D78AEC25F00D0E62
:1068EC005A6EFC0EE82EFED75A2EFCD7000E686EA0
:1068FC00000E676E68BE06D068504AE1030E675CF6
:10690C00D8B046D065C043F066C044F0000E466E69
:10691C00030E456E71EC23F0B30E5A6E7F0E5B6E58
:10692C0043505A2644505B2267505A2668505B22CB
:10693C005AC0F6FF5BC0F7FF0800F550640AD8B4E4
:10694C0027D065C043F066C044F0000E466E030EBF
:10695C00456E71EC23F0B30E5A6E7F0E5B6E435096
:10696C005A2644505B2267505A2668505B225AC004
:10697C00F6FF5BC0F7FF0800F5506124636E000E54
:10698C006220646E63502FEC25F0674A682AB2D7F8
:10699C008AEC25F06506D8A066064BD75C6E000E17
:1069AC005E6E000E5D6E000E606E000E5F6E5C50D3
:1069BC00D8A4C6D0000E5E6E000E5D6E5EBE08D012
:1069CC005E5005E10A0E5D5CD8B0120001D01200D9
:1069DC00000E606E000E5F6E60BE06D060504AE125
:1069EC00080E5F5CD8B046D05DC058F05EC059F060
:1069FC00D89058365936D89058365936D89058368B
:106A0C005936690E5A6E7D0E5B6E58505A26595087
:106A1C005B225F505A2660505B225AC0F6FF5BC067
:106A2C00F7FF0800F550640AD8B424D05DC058F0C4
:106A3C005EC059F0D89058365936D89058365936D9
:106A4C00D89058365936690E5A6E7D0E5B6E58507A
:106A5C005A2659505B225F505A2660505B225AC00E
:106A6C00F6FF5BC0F7FF0800F550D8EC24F05F4A46
:106A7C00602AB2D78AEC25F0070E586E7D0EE82EF0
:106A8C00FED7582EFCD700F0000E606E000E5F6E25
:106A9C0060BE06D060504AE1080E5F5CD8B046D0AC
:106AAC005DC058F05EC059F0D89058365936D89021
:106ABC0058365936D89058365936690E5A6E7D0E5E
:106ACC005B6E58505A2659505B225F505A266050C4
:106ADC005B225AC0F6FF5BC0F7FF0800F550640A52
:106AEC00D8B424D05DC058F05EC059F0D890583658
:106AFC005936D89058365936D89058365936690E7A
:106B0C005A6E7D0E5B6E58505A2659505B225F5060
:106B1C005A2660505B225AC0F6FF5BC0F7FF080094
:106B2C00F5502FEC25F05F4A602AB2D78AEC25F09D
:106B3C005D4A5E2A5EBE4CD75E5001E143D712001F
:106B4C005C04D8A4BAD0000E5E6E000E5D6E5EBE04
:106B5C0008D05E5005E1070E5D5CD8B0120001D084
:106B6C001200000E606E000E5F6E60BE06D06050AC
:106B7C0044E1060E5F5CD8B040D05DC043F05EC00F
:106B8C0044F0000E466E060E456E71EC23F0390E85
:106B9C00586E7F0E596E43505826445059225F5000
:106BAC0058266050592258C0F6FF59C0F7FF08000C
:106BBC00F550640AD8B421D05DC043F05EC044F0F7
:106BCC00000E466E060E456E71EC23F0390E586EB3
:106BDC007F0E596E43505826445059225F50582608
:106BEC006050592258C0F6FF59C0F7FF0800F55005
:106BFC00D8EC24F05F4A602AB8D78AEC25F0070E4F
:106C0C00586E7D0EE82EFED7582EFCD700F0000EE5
:106C1C00606E000E5F6E60BE06D0605044E1060EE2
:106C2C005F5CD8B040D05DC043F05EC044F0000E55
:106C3C00466E060E456E71EC23F0390E586E7F0EC3
:106C4C00596E43505826445059225F505826605074
:106C5C00592258C0F6FF59C0F7FF0800F550640AD6
:106C6C00D8B421D05DC043F05EC044F0000E466E37
:106C7C00060E456E71EC23F0390E586E7F0E596E70
:106C8C0043505826445059225F5058266050592280
:106C9C0058C0F6FF59C0F7FF0800F5502FEC25F04F
:106CAC005F4A602AB8D78AEC25F05D4A5E2A5EBE40
:106CBC0058D75E5001E14FD71200020E5C18D8A4D1
:106CCC00B9D0000E5E6E000E5D6E5EBE08D05E50DA
:106CDC0005E1050E5D5CD8B0120001D01200000E6B
:106CEC00606E000E5F6E60BE06D0605044E1040E14
:106CFC005F5CD8B040D05DC058F05EC059F0D89001
:106D0C0058365936D89058365936CB0E5A6E7F0EA7
:106D1C005B6E58505A2659505B225F505A26605071
:106D2C005B225AC0F6FF5BC0F7FF0800F550640AFF
:106D3C00D8B421D05DC058F05EC059F0D890583608
:106D4C005936D89058365936CB0E5A6E7F0E5B6E2C
:106D5C0058505A2659505B225F505A2660505B227D
:106D6C005AC0F6FF5BC0F7FF0800F550D8EC24F0D2
:106D7C005F4A602AB8D78AEC25F00D0E586EFC0ECF
:106D8C00E82EFED7582EFCD7000E606E000E5F6EFC
:106D9C0060BE06D0605044E1040E5F5CD8B040D0B9
:106DAC005DC058F05EC059F0D89058365936D8901E
:106DBC0058365936CB0E5A6E7F0E5B6E58505A268B
:106DCC0059505B225F505A2660505B225AC0F6FF26
:106DDC005BC0F7FF0800F550640AD8B421D05DC041
:106DEC0058F05EC059F0D89058365936D89058366D
:106DFC005936CB0E5A6E7F0E5B6E58505A26595030
:106E0C005B225F505A2660505B225AC0F6FF5BC073
:106E1C00F7FF0800F5502FEC25F05F4A602AB8D731
:106E2C008AEC25F05D4A5E2A5EBE59D75E5001E1C0
:106E3C0050D71200030E5C18D8A41200000E5E6E20
:106E4C00030E5D6E5EBEA7D0000E606E000E5F6E10
:106E5C0060BE06D0605044E11A0E5F5CD8B040D0E2
:106E6C005DC043F05EC044F0000E466E1A0E456ED7
:106E7C0071EC23F0410E586E7C0E596E435058261F
:106E8C00445059225F5058266050592258C0F6FF82
:106E9C0059C0F7FF0800F550640AD8B421D05DC082
:106EAC0043F05EC044F0000E466E1A0E456E71EC57
:106EBC0023F0410E586E7C0E596E435058264450A8
:106ECC0059225F5058266050592258C0F6FF59C0BD
:106EDC00F7FF0800F550D8EC24F05F4A602AB8D7C9
:106EEC008AEC25F00D0E586EFC0EE82EFED7582EAF
:106EFC00FCD7000E606E000E5F6E60BE06D0605058
:106F0C0044E11A0E5F5CD8B040D05DC043F05EC067
:106F1C0044F0000E466E1A0E456E71EC23F0410ED5
:106F2C00586E7C0E596E43505826445059225F506F
:106F3C0058266050592258C0F6FF59C0F7FF080078
:106F4C00F550640AD8B421D05DC043F05EC044F063
:106F5C00000E466E1A0E456E71EC23F0410E586E03
:106F6C007C0E596E43505826445059225F50582677
:106F7C006050592258C0F6FF59C0F7FF0800F55071
:106F8C002FEC25F05F4A602AB8D78AEC25F05D0615
:106F9C00D8A05E0657D7000E5E6E000E5D6E5EBE0C
:106FAC0008D05E5005E1030E5D5CD8B0120001D034
:106FBC001200000E606E000E5F6E60BE06D0605058
:106FCC0044E11A0E5F5CD8B040D05DC043F05EC0A7
:106FDC0044F0000E466E1A0E456E71EC23F0410E15
:106FEC00586E7C0E596E43505826445059225F50AF
:106FFC0058266050592258C0F6FF59C0F7FF0800B8
:10700C00F550640AD8B421D05DC043F05EC044F0A2
:10701C00000E466E1A0E456E71EC23F0410E586E42
:10702C007C0E596E43505826445059225F505826B6
:10703C006050592258C0F6FF59C0F7FF0800F550B0
:10704C00D8EC24F05F4A602AB8D78AEC25F00D0EF4
:10705C00586EFC0EE82EFED7582EFCD7000E606E34
:10706C00000E5F6E60BE06D0605044E11A0E5F5C8D
:10707C00D8B040D05DC043F05EC044F0000E466E08
:10708C001A0E456E71EC23F0410E586E7C0E596E43
:10709C0043505826445059225F505826605059226C
:1070AC0058C0F6FF59C0F7FF0800F550640AD8B471
:1070BC0021D05DC043F05EC044F0000E466E1A0E47
:1070CC00456E71EC23F0410E586E7C0E596E435098
:1070DC005826445059225F5058266050592258C0A7
:1070EC00F6FF59C0F7FF0800F5502FEC25F05F4A6A
:1070FC00602AB8D78AEC25F05D4A5E2A5EBE59D765
:10710C005E5001E150D71200000E6F6E000E706ED3
:10711C00E00E0001806FE20E9D6FE40EBA6FE60E7A
:10712C00D76F39EC23F027EC23F0080E6F6E800E2E
:10713C00706E70C043F06F5051EC23F0D3508F0B36
:10714C006009D36E090EC86EC80E00D0E82EFDD7AC
:10715C00000E7B6E000E7A6E7BBE06D07B504BE130
:10716C00040E7A5CD8B047D030EC23F029EC23F035
:10717C0030EC23F07AC043F07BC044F0000E466E36
:10718C001D0E456E71EC23F0800E4324D96E000E5B
:10719C004420DA6EDF5084EC23F030EC23F0210E27
:1071AC0084EC23F030EC23F02BEC23F030EC23F0C8
:1071BC0029EC23F030EC23F07AC043F07BC044F090
:1071CC00000E466E1D0E456E71EC23F0800E4324AE
:1071DC00D96E000E4420DA6EDF5084EC23F030ECD4
:1071EC0023F0810E84EC23F030EC23F02BEC23F015
:1071FC007A4A7B2AB1D7000E756E000E746E000EA3
:10720C00766E000E736E000E796E000E726E000EAE
:10721C007B6E000E7A6E7BBE06D07B5037E1080E7B
:10722C007A5CD8B033D0000E786E000E776E78BED4
:10723C0006D0785028E1080E775CD8B024D07AC0FC
:10724C0069F07BC06AF0D89069366A36D890693696
:10725C006A36D89069366A36F90E6B6E7E0E6C6E95
:10726C0069506B266A506C2277506B2678506C22D2
:10727C006BC0F6FF6CC0F7FF0800F550D8EC24F09B
:10728C00774A782AD4D77A4A7B2AC5D78AEC25F054
:10729C00410E696EEE0EE82EFED7692EFCD700D09B
:1072AC00000E7B6E000E7A6E7BBE06D07B500AE120
:1072BC00400E7A5CD8B006D07A502FEC25F07A4A82
:1072CC007B2AF2D78AEC25F0D6EC26F00009D8B44C
:1072DC00FBD7000E796E3F0E796401D0F5D779504B
:1072EC00010DF90EF324F66E7D0EF420F76E0800F6
:1072FC00F5CF69F069380F0B6D6E7950010DF90EF1
:10730C00F324F66E7D0EF420F76E0800F5500F0B8B
:10731C006E6E6E50080DF3506D24200F716E795007
:10732C0036EC24F00009D8B438D3795087EC24F02B
:10733C000009D8A432D37950020D000EF324D96E73
:10734C00010EF420DA6EDE50DE10D8A434D07C505E
:10735C007D10D8B405D0020E7C187D10D8A411D0A5
:10736C007950010DB90EF324F66E7D0EF420F76EF4
:10737C000800F5CF43F0400E446E990E60EC23F0FC
:10738C0010D07C047D10D8B405D0030E7C187D1071
:10739C00D8A407D071C043F07F0E446E900E60EC01
:1073AC0023F07950020D000EF324D96E010EF42057
:1073BC00DA6E010E4CD07C507D10D8A411D07950CF
:1073CC00010DB90EF324F66E7D0EF420F76E080055
:1073DC00F5CF43F0400E446E990E60EC23F02ED0A6
:1073EC007C047D10D8A408D071C043F07F0E446E8D
:1073FC00900E60EC23F022D0020E7C187D10D8A4E5
:10740C0011D07950010DB90EF324F66E7D0EF420D7
:10741C00F76E0800F5CF43F0000E446E890E60EC59
:10742C0023F00CD0030E7C187D10D8A407D071C0AB
:10743C0043F07F0E446E800E60EC23F07950020D09
:10744C00000EF324D96E010EF420DA6E000EDE6EFF
:10745C00000EDD6E000E7B6E000E7A6E7BBE06D0CB
:10746C007B505BE1080E7A5CD8B057D07AC069F0DB
:10747C007BC06AF0D89069366A36D89069366A361D
:10748C00D89069366A36070E6926000E6A22F90E04
:10749C006924F66E7E0E6A20F76E0800F550791896
:1074AC00D8A414D0ED0E696EFF0E6A6E79506B6E17
:1074BC006C6A69506B266A506C226C346C326B327D
:1074CC006C346C326B326B50746E24D07AC069F0B1
:1074DC007BC06AF0D89069366A36D89069366A36BD
:1074EC00D89069366A36070E6926000E6A22F90EA4
:1074FC006924F66E7E0E6A20F76E0800F550020DB8
:10750C00000EF324D96E010EF420DA6E000EDE6E3E
:10751C00000EDD6E7A4A7B2AA1D7000E7B6E000E20
:10752C007A6E7BBE06D07B5041E1080E7A5CD8B0F7
:10753C003DD0000E786E000E776E78BE06D0785077
:10754C0032E1080E775CD8B02ED07AC069F07BC0DF
:10755C006AF0D89069366A36D89069366A36D8900F
:10756C0069366A36F90E6B6E7E0E6C6E69506B2640
:10757C006A506C2277506B2678506C226BC0F6FFE9
:10758C006CC0F7FF0800F5507918D8A409D0F90E93
:10759C007724F66E7E0E7820F76E0800F5CF75F026
:1075AC00774A782ACAD77A4A7B2ABBD7130E751822
:1075BC00D8A414D0000E7B6E000E7A6E7BBE06D063
:1075CC007B500AE1400E7A5CD8B006D07A502FEC92
:1075DC0025F07A4A7B2AF2D78AEC25F07450D8A48D
:1075EC00AAD0130E7518D8B4A6D0000E7B6E000E60
:1075FC007A6E7BBE06D07B5056E10E0E7A5CD8B00C
:10760C0052D08B0E7A24F66E7F0E7B20F76E08001C
:10761C00F5507918D8A402D0010E3ED07AC069F08A
:10762C007BC06AF0691E6A1E694A6A2A270E69269F
:10763C00000E6A228B0E6924F66E7F0E6A20F76E9E
:10764C000800F5507918D8A402D0020E25D0630E8C
:10765C007A24F66E7F0E7B20F76E0800F5507918B1
:10766C00D8A402D0030E18D07AC069F07BC06AF09F
:10767C00691E6A1E694A6A2A270E6926000E6A224A
:10768C00630E6924F66E7F0E6A20F76E0800F550C3
:10769C007918D8A405D0040E766E7AC073F003D096
:1076AC007A4A7B2AA6D7000E7B6E000E7A6E7BBEC2
:1076BC0006D07B503AE1020E7A5CD8B036D0000E80
:1076CC00786E000E776E78BE06D078502BE1080EDF
:1076DC00775CD8B027D07AC043F07BC044F0000E62
:1076EC00466E140E456E71EC23F0550E696E7B0ED2
:1076FC006A6E4350692644506A2277506926785046
:10770C006A2269C0F6FF6AC0F7FF0800F5507918C5
:10771C00D8A405D0050E766E7AC073F003D0774AE4
:10772C00782AD1D77A4A7B2AC2D773C058F07650C0
:10773C00BAEC2AF018D17404D8A410D0130E751812
:10774C00D8B40CD079380F0B766E79500F0B736E52
:10775C0073C058F0765024EC26F005D1020E741844
:10776C00D8A412D0130E7518D8B40ED079380F0BCC
:10777C00766E79500F0B736E73C058F079C059F058
:10778C00765056EC31F0EFD0030E7418D8A467D0B5
:10779C00130E7518D8B463D0000E7B6E000E7A6E83
:1077AC007BBE06D07B5057E1040E7A5CD8B053D028
:1077BC00000E786E000E776E78BE06D0785048E1D9
:1077CC001A0E775CD8B044D07AC043F07BC044F03A
:1077DC00000E466E1A0E456E71EC23F0410E696E6A
:1077EC007C0E6A6E4350692644506A227750692693
:1077FC0078506A2269C0F6FF6AC0F7FF0800F5509E
:10780C00640AD8B422D07AC043F07BC044F0000E96
:10781C00466E1A0E456E71EC23F0410E696E7C0EAD
:10782C006A6E4350692644506A2277506926785014
:10783C006A2269C0F6FF6AC0F7FF0800F550791894
:10784C00D8A403D07AC076F006D0774A782AB4D779
:10785C007A4A7B2AA5D77650D4EC34F084D0080E23
:10786C007418D8A40DD0130E7518D8B409D0793863
:10787C000F0B766E79C058F07650A7EC2CF073D0C5
:10788C00090E7418D8A412D0130E7518D8B40ED0D3
:10789C0079380F0B766E79500F0B736E73C058F0EE
:1078AC0079C059F0765032EC29F05DD00A0E74187C
:1078BC00D8A44ED0130E7518D8B44AD0000E7B6ED7
:1078CC00000E7A6E7BBE06D07B503CE1080E7A5CD3
:1078DC00D8B038D0000E786E000E776E78BE06D019
:1078EC0078502DE1080E775CD8B029D07AC069F0B9
:1078FC007BC06AF0D89069366A36D89069366A3699
:10790C00D89069366A36F90E6B6E7E0E6C6E6950C5
:10791C006B266A506C2277506B2678506C226BC0A9
:10792C00F6FF6CC0F7FF0800F5507918D8A404D006
:10793C007AC076F077C073F0774A782ACFD77A4A34
:10794C007B2AC0D773C058F07650C9EC27F00BD007
:10795C000B0E7418D8A407D0130E7518D8B403D016
:10796C007950DDEC2EF0000E726E3F0E726401D079
:10797C0011D07250020D000EF324D96E010EF420BA
:10798C00DA6EDE04DE10D8A403D07250D8EC24F0EA
:10799C00722AEBD78AEC25F097D4792A9CD4FFD79E
:1079AC0000006464640104056406090A640B0E0F8C
:1079BC0064016464640002056404060964080A0D29
:1079CC0064026464640103066405070A64090B0E0F
:1079DC0064036464640206076405090A64080C0DF8
:1079EC006404646464000508640106096402070AFF
:1079FC00640564646401040609070D6464646464CA
:107A0C0064066464640205070A040E6464646464B6
:107A1C00640764646403060B6402050A64010409C8
:107A2C00640864646404090C64050A0D64060B0E96
:107A3C00640964646405080A0D010B64646464647D
:107A4C00640A64646406090B0E020864646464646A
:107A5C00640B646464070A0F6406090E6405080D60
:107A6C00640C64646408090D6405060A6402030767
:107A7C00640D646464090C0E6405080A6401040650
:107A8C00640E6464640A0D0F6406090B6402050736
:107A9C00640F6464640A0B0E640506096400010437
:107AAC006400050A0F1316191C2326292C30353AAD
:107ABC003F646464646464646404090E2330272A9C
:107ACC002D1C31363B0F18151264646464646464B5
:107ADC0064031006070A0B0C20212522262F3C38A4
:107AEC003934351F331A1E191D020305060B1820D5
:107AFC002425290E223C3D393A34271B1F161A1D0A
:107B0C0031000105060A1317161A19282C252926E7
:107B1C003E3F393A35646464640001282C3E3F13BF
:107B2C001764646464646464646464646464646456
:107B3C0064002C3F1364646464646464646464640B
:107B4C006464646464646464640F1C2330646464FB
:107B5C00646464646464646464646464640B0E22CA
:107B6C0027181D31346464646464646464646464FC
:107B7C00640A0B18190E22262734351D31646464EF
:107B8C006464646464070A0D21262B14191E3235B3
:107B9C003864646464646464640506071415160927
:107BAC000D2125292A2B38393A1A1E32360205089E
:107BBC0024292E373A3D11161B6464646464646492
:107BCC00640F1C233064646464646464646464647B
:107BDC0064646464646464646464646464640A0B0C
:107BEC000E2226273435311D19180B646464646425
:107BFC0064646464646464646464640506071415F2
:107C0C00090D2125292A2B38393A36321E1A1664C9
:107C1C0064646464646464640001020310111213EC
:107C2C0004080C2024282C2D2E2F3C3D3E3F171BE6
:107C3C001F33373B3F00010203101112161A1E327C
:107C4C00363A04080C2024282C2D2E2F3C3D3E05C2
:107C5C0006071415191D313539090D2125292A2B33
:107C6C003864646464646464640A0B181C0E222611
:107C7C002734306464646464646464646464646459
:107C8C006464640F2364646464646464646464643E
:107C9C0064646464646464646464646464373A3D16
:107CAC003B3E3F64643336393C373A3D641F3235D2
:107CBC00383336393C1B1E31341F323538171A1DF8
:107CCC00301B1E31341316191C171A1D30121518BF
:107CDC000F1316191C11140B0E1215180F10070A7E
:107CEC000D11140B0E0306090C10070A0D020508E2
:107CFC000306090C64000102040508646400010217
:107D0C0004050864640205080306090C64030609EB
:107D1C000C070A0D20070A0D200B0E21240B0E2137
:107D2C00240F2225280F2225282326292C23262917
:107D3C002C30272A2D30272A2D31342B2E31342B61
:107D4C002E3235382F3235382F3336393C333639DD
:107D5C003C373A3D64373A3D3B3E3F646400010298
:107D6C00032F3C3D3E010203102E2F3C3D0203101D
:107D7C00112D2E2F3C031011122C2D2E2F10111201
:107D8C0016282C2D2E1112161A24282C2D12161AE8
:107D9C001E2024282C161A1E320C2024281A1E32BF
:107DAC0036080C20241E32363A04080C20232425D5
:107DBC0026272829002A2B2C2D2E2F300031323348
:107DCC00343536370038393A3B3C3D3E003E3F4077
:107DDC00414243440045464748494A4B004C4D4EAE
:107DEC004F505123002425262728292A0000102033
:107DFC00300111213102122232031323334050601F
:107E0C007041516171425262724353637304142482
:107E1C0034051525350616263607172737445464BE
:107E2C007445556575465666764757677700010465
:107E3C0005010205060203060703071014040508D2
:107E4C00090506090A06070A0B070B141808090C82
:107E5C000D090A0D0E0A0B0E0F0B180F1C0C0D2022
:107E6C00210D0E21220E0F22230F1C2330132C6404
:107E7C0064646464641217282D6464646411161BB2
:107E8C0024292E646410151A1F20252A2F03141977
:107E9C001E21262B0C0207181D080D222701060B8C
:107EAC001C04090E2300050A0F64646464132C641B
:107EBC0064646464641217282D6464646411161B72
:107ECC0024292E646410151A1F20252A2F14191E1C
:107EDC003321262B3C181D32372227383D1C3136D6
:107EEC003B2334393E30353A3F646464640001020C
:107EFC000310111213040506071415161708090AA6
:107F0C000B18191A1B0C0D0E0F1C1D1E1F202122E5
:107F1C002330313233242526273435363728292A85
:107F2C002B38393A3B2C2D2E2F3C3D3E3F05060776
:107F3C002B38390607142A2B38071415292A2B1429
:107F4C00151925292A15191D212529191D310D2130
:107F5C00251D3135090D210004080C2024282C295D
:107F6C0025210D09050A0E2226230F1C3035311D43
:107F7C0019161A1E32363A3F3B37331F1B171300A4
:107F8C00010203101112131615140706050A0B181B
:107F9C00191C0F233035342726292A2B38393A3F20
:107FAC003E3D3C2F2E2D2C0001020102030203103A
:107FBC000310111011121112131213641364640ABA
:107FCC000B27340B182627181C22261C300E220ACD
:107FDC000E30340704022205060001031030211371
:107FEC001211313A37353428292324161B11100E5F
:047FFC000D0C020066
:020000040020DA
:08000000FFFFFFFFFFFFFFFF00
:020000040030CA
:0E000000FF881F00FF8381FF0FC00FE00F403D
:00000001FF
